{
  "_format": "hh-sol-artifact-1",
  "contractName": "MessageProxyForSchain",
  "sourceName": "contracts/schain/MessageProxyForSchain.sol",
  "abi": [
    {
      "anonymous": false,
      "inputs": [
        {
          "indexed": true,
          "internalType": "bytes32",
          "name": "chainHash",
          "type": "bytes32"
        },
        {
          "indexed": false,
          "internalType": "address",
          "name": "contractAddress",
          "type": "address"
        }
      ],
      "name": "ExtraContractRegistered",
      "type": "event"
    },
    {
      "anonymous": false,
      "inputs": [
        {
          "indexed": true,
          "internalType": "bytes32",
          "name": "chainHash",
          "type": "bytes32"
        },
        {
          "indexed": false,
          "internalType": "address",
          "name": "contractAddress",
          "type": "address"
        }
      ],
      "name": "ExtraContractRemoved",
      "type": "event"
    },
    {
      "anonymous": false,
      "inputs": [
        {
          "indexed": false,
          "internalType": "uint256",
          "name": "oldValue",
          "type": "uint256"
        },
        {
          "indexed": false,
          "internalType": "uint256",
          "name": "newValue",
          "type": "uint256"
        }
      ],
      "name": "GasLimitWasChanged",
      "type": "event"
    },
    {
      "anonymous": false,
      "inputs": [
        {
          "indexed": true,
          "internalType": "bytes32",
          "name": "dstChainHash",
          "type": "bytes32"
        },
        {
          "indexed": true,
          "internalType": "uint256",
          "name": "msgCounter",
          "type": "uint256"
        },
        {
          "indexed": true,
          "internalType": "address",
          "name": "srcContract",
          "type": "address"
        },
        {
          "indexed": false,
          "internalType": "address",
          "name": "dstContract",
          "type": "address"
        },
        {
          "indexed": false,
          "internalType": "bytes",
          "name": "data",
          "type": "bytes"
        }
      ],
      "name": "OutgoingMessage",
      "type": "event"
    },
    {
      "anonymous": false,
      "inputs": [
        {
          "indexed": true,
          "internalType": "uint256",
          "name": "msgCounter",
          "type": "uint256"
        },
        {
          "indexed": false,
          "internalType": "bytes",
          "name": "message",
          "type": "bytes"
        }
      ],
      "name": "PostMessageError",
      "type": "event"
    },
    {
      "anonymous": false,
      "inputs": [
        {
          "indexed": true,
          "internalType": "bytes32",
          "name": "role",
          "type": "bytes32"
        },
        {
          "indexed": true,
          "internalType": "bytes32",
          "name": "previousAdminRole",
          "type": "bytes32"
        },
        {
          "indexed": true,
          "internalType": "bytes32",
          "name": "newAdminRole",
          "type": "bytes32"
        }
      ],
      "name": "RoleAdminChanged",
      "type": "event"
    },
    {
      "anonymous": false,
      "inputs": [
        {
          "indexed": true,
          "internalType": "bytes32",
          "name": "role",
          "type": "bytes32"
        },
        {
          "indexed": true,
          "internalType": "address",
          "name": "account",
          "type": "address"
        },
        {
          "indexed": true,
          "internalType": "address",
          "name": "sender",
          "type": "address"
        }
      ],
      "name": "RoleGranted",
      "type": "event"
    },
    {
      "anonymous": false,
      "inputs": [
        {
          "indexed": true,
          "internalType": "bytes32",
          "name": "role",
          "type": "bytes32"
        },
        {
          "indexed": true,
          "internalType": "address",
          "name": "account",
          "type": "address"
        },
        {
          "indexed": true,
          "internalType": "address",
          "name": "sender",
          "type": "address"
        }
      ],
      "name": "RoleRevoked",
      "type": "event"
    },
    {
      "anonymous": false,
      "inputs": [
        {
          "indexed": false,
          "internalType": "string",
          "name": "oldVersion",
          "type": "string"
        },
        {
          "indexed": false,
          "internalType": "string",
          "name": "newVersion",
          "type": "string"
        }
      ],
      "name": "VersionUpdated",
      "type": "event"
    },
    {
      "inputs": [],
      "name": "CHAIN_CONNECTOR_ROLE",
      "outputs": [
        {
          "internalType": "bytes32",
          "name": "",
          "type": "bytes32"
        }
      ],
      "stateMutability": "view",
      "type": "function"
    },
    {
      "inputs": [],
      "name": "CONSTANT_SETTER_ROLE",
      "outputs": [
        {
          "internalType": "bytes32",
          "name": "",
          "type": "bytes32"
        }
      ],
      "stateMutability": "view",
      "type": "function"
    },
    {
      "inputs": [],
      "name": "DEFAULT_ADMIN_ROLE",
      "outputs": [
        {
          "internalType": "bytes32",
          "name": "",
          "type": "bytes32"
        }
      ],
      "stateMutability": "view",
      "type": "function"
    },
    {
      "inputs": [],
      "name": "ETHERBASE",
      "outputs": [
        {
          "internalType": "contract IEtherbaseUpgradeable",
          "name": "",
          "type": "address"
        }
      ],
      "stateMutability": "view",
      "type": "function"
    },
    {
      "inputs": [],
      "name": "EXTRA_CONTRACT_REGISTRAR_ROLE",
      "outputs": [
        {
          "internalType": "bytes32",
          "name": "",
          "type": "bytes32"
        }
      ],
      "stateMutability": "view",
      "type": "function"
    },
    {
      "inputs": [],
      "name": "MAINNET_HASH",
      "outputs": [
        {
          "internalType": "bytes32",
          "name": "",
          "type": "bytes32"
        }
      ],
      "stateMutability": "view",
      "type": "function"
    },
    {
      "inputs": [],
      "name": "MESSAGES_LENGTH",
      "outputs": [
        {
          "internalType": "uint256",
          "name": "",
          "type": "uint256"
        }
      ],
      "stateMutability": "view",
      "type": "function"
    },
    {
      "inputs": [],
      "name": "MINIMUM_BALANCE",
      "outputs": [
        {
          "internalType": "uint256",
          "name": "",
          "type": "uint256"
        }
      ],
      "stateMutability": "view",
      "type": "function"
    },
    {
      "inputs": [
        {
          "internalType": "string",
          "name": "chainName",
          "type": "string"
        }
      ],
      "name": "addConnectedChain",
      "outputs": [],
      "stateMutability": "nonpayable",
      "type": "function"
    },
    {
      "inputs": [
        {
          "internalType": "bytes32",
          "name": "",
          "type": "bytes32"
        }
      ],
      "name": "connectedChains",
      "outputs": [
        {
          "internalType": "uint256",
          "name": "incomingMessageCounter",
          "type": "uint256"
        },
        {
          "internalType": "uint256",
          "name": "outgoingMessageCounter",
          "type": "uint256"
        },
        {
          "internalType": "bool",
          "name": "inited",
          "type": "bool"
        }
      ],
      "stateMutability": "view",
      "type": "function"
    },
    {
      "inputs": [],
      "name": "gasLimit",
      "outputs": [
        {
          "internalType": "uint256",
          "name": "",
          "type": "uint256"
        }
      ],
      "stateMutability": "view",
      "type": "function"
    },
    {
      "inputs": [
        {
          "internalType": "bytes32",
          "name": "schainHash",
          "type": "bytes32"
        }
      ],
      "name": "getContractRegisteredLength",
      "outputs": [
        {
          "internalType": "uint256",
          "name": "",
          "type": "uint256"
        }
      ],
      "stateMutability": "view",
      "type": "function"
    },
    {
      "inputs": [
        {
          "internalType": "bytes32",
          "name": "schainHash",
          "type": "bytes32"
        },
        {
          "internalType": "uint256",
          "name": "from",
          "type": "uint256"
        },
        {
          "internalType": "uint256",
          "name": "to",
          "type": "uint256"
        }
      ],
      "name": "getContractRegisteredRange",
      "outputs": [
        {
          "internalType": "address[]",
          "name": "contractsInRange",
          "type": "address[]"
        }
      ],
      "stateMutability": "view",
      "type": "function"
    },
    {
      "inputs": [
        {
          "internalType": "string",
          "name": "fromSchainName",
          "type": "string"
        }
      ],
      "name": "getIncomingMessagesCounter",
      "outputs": [
        {
          "internalType": "uint256",
          "name": "",
          "type": "uint256"
        }
      ],
      "stateMutability": "view",
      "type": "function"
    },
    {
      "inputs": [
        {
          "internalType": "string",
          "name": "targetSchainName",
          "type": "string"
        }
      ],
      "name": "getOutgoingMessagesCounter",
      "outputs": [
        {
          "internalType": "uint256",
          "name": "",
          "type": "uint256"
        }
      ],
      "stateMutability": "view",
      "type": "function"
    },
    {
      "inputs": [
        {
          "internalType": "bytes32",
          "name": "role",
          "type": "bytes32"
        }
      ],
      "name": "getRoleAdmin",
      "outputs": [
        {
          "internalType": "bytes32",
          "name": "",
          "type": "bytes32"
        }
      ],
      "stateMutability": "view",
      "type": "function"
    },
    {
      "inputs": [
        {
          "internalType": "bytes32",
          "name": "role",
          "type": "bytes32"
        },
        {
          "internalType": "uint256",
          "name": "index",
          "type": "uint256"
        }
      ],
      "name": "getRoleMember",
      "outputs": [
        {
          "internalType": "address",
          "name": "",
          "type": "address"
        }
      ],
      "stateMutability": "view",
      "type": "function"
    },
    {
      "inputs": [
        {
          "internalType": "bytes32",
          "name": "role",
          "type": "bytes32"
        }
      ],
      "name": "getRoleMemberCount",
      "outputs": [
        {
          "internalType": "uint256",
          "name": "",
          "type": "uint256"
        }
      ],
      "stateMutability": "view",
      "type": "function"
    },
    {
      "inputs": [
        {
          "internalType": "bytes32",
          "name": "role",
          "type": "bytes32"
        },
        {
          "internalType": "address",
          "name": "account",
          "type": "address"
        }
      ],
      "name": "grantRole",
      "outputs": [],
      "stateMutability": "nonpayable",
      "type": "function"
    },
    {
      "inputs": [
        {
          "internalType": "bytes32",
          "name": "role",
          "type": "bytes32"
        },
        {
          "internalType": "address",
          "name": "account",
          "type": "address"
        }
      ],
      "name": "hasRole",
      "outputs": [
        {
          "internalType": "bool",
          "name": "",
          "type": "bool"
        }
      ],
      "stateMutability": "view",
      "type": "function"
    },
    {
      "inputs": [
        {
          "internalType": "contract IKeyStorage",
          "name": "blsKeyStorage",
          "type": "address"
        },
        {
          "internalType": "string",
          "name": "schainName",
          "type": "string"
        }
      ],
      "name": "initialize",
      "outputs": [],
      "stateMutability": "nonpayable",
      "type": "function"
    },
    {
      "inputs": [
        {
          "internalType": "bytes32",
          "name": "chainHash",
          "type": "bytes32"
        },
        {
          "internalType": "address[]",
          "name": "contracts",
          "type": "address[]"
        }
      ],
      "name": "initializeAllRegisteredContracts",
      "outputs": [],
      "stateMutability": "nonpayable",
      "type": "function"
    },
    {
      "inputs": [
        {
          "internalType": "uint256",
          "name": "newGasLimit",
          "type": "uint256"
        }
      ],
      "name": "initializeMessageProxy",
      "outputs": [],
      "stateMutability": "nonpayable",
      "type": "function"
    },
    {
      "inputs": [
        {
          "internalType": "string",
          "name": "schainName",
          "type": "string"
        }
      ],
      "name": "isConnectedChain",
      "outputs": [
        {
          "internalType": "bool",
          "name": "",
          "type": "bool"
        }
      ],
      "stateMutability": "view",
      "type": "function"
    },
    {
      "inputs": [
        {
          "internalType": "bytes32",
          "name": "schainHash",
          "type": "bytes32"
        },
        {
          "internalType": "address",
          "name": "contractAddress",
          "type": "address"
        }
      ],
      "name": "isContractRegistered",
      "outputs": [
        {
          "internalType": "bool",
          "name": "",
          "type": "bool"
        }
      ],
      "stateMutability": "view",
      "type": "function"
    },
    {
      "inputs": [],
      "name": "keyStorage",
      "outputs": [
        {
          "internalType": "contract IKeyStorage",
          "name": "",
          "type": "address"
        }
      ],
      "stateMutability": "view",
      "type": "function"
    },
    {
      "inputs": [
        {
          "internalType": "string",
          "name": "fromChainName",
          "type": "string"
        },
        {
          "internalType": "uint256",
          "name": "startingCounter",
          "type": "uint256"
        },
        {
          "components": [
            {
              "internalType": "address",
              "name": "sender",
              "type": "address"
            },
            {
              "internalType": "address",
              "name": "destinationContract",
              "type": "address"
            },
            {
              "internalType": "bytes",
              "name": "data",
              "type": "bytes"
            }
          ],
          "internalType": "struct IMessageProxy.Message[]",
          "name": "messages",
          "type": "tuple[]"
        },
        {
          "components": [
            {
              "internalType": "uint256[2]",
              "name": "blsSignature",
              "type": "uint256[2]"
            },
            {
              "internalType": "uint256",
              "name": "hashA",
              "type": "uint256"
            },
            {
              "internalType": "uint256",
              "name": "hashB",
              "type": "uint256"
            },
            {
              "internalType": "uint256",
              "name": "counter",
              "type": "uint256"
            }
          ],
          "internalType": "struct IMessageProxy.Signature",
          "name": "signature",
          "type": "tuple"
        }
      ],
      "name": "postIncomingMessages",
      "outputs": [],
      "stateMutability": "nonpayable",
      "type": "function"
    },
    {
      "inputs": [
        {
          "internalType": "bytes32",
          "name": "targetChainHash",
          "type": "bytes32"
        },
        {
          "internalType": "address",
          "name": "targetContract",
          "type": "address"
        },
        {
          "internalType": "bytes",
          "name": "data",
          "type": "bytes"
        }
      ],
      "name": "postOutgoingMessage",
      "outputs": [],
      "stateMutability": "nonpayable",
      "type": "function"
    },
    {
      "inputs": [
        {
          "internalType": "string",
          "name": "chainName",
          "type": "string"
        },
        {
          "internalType": "address",
          "name": "extraContract",
          "type": "address"
        }
      ],
      "name": "registerExtraContract",
      "outputs": [],
      "stateMutability": "nonpayable",
      "type": "function"
    },
    {
      "inputs": [
        {
          "internalType": "address",
          "name": "extraContract",
          "type": "address"
        }
      ],
      "name": "registerExtraContractForAll",
      "outputs": [],
      "stateMutability": "nonpayable",
      "type": "function"
    },
    {
      "inputs": [
        {
          "internalType": "string",
          "name": "chainName",
          "type": "string"
        }
      ],
      "name": "removeConnectedChain",
      "outputs": [],
      "stateMutability": "nonpayable",
      "type": "function"
    },
    {
      "inputs": [
        {
          "internalType": "string",
          "name": "chainName",
          "type": "string"
        },
        {
          "internalType": "address",
          "name": "extraContract",
          "type": "address"
        }
      ],
      "name": "removeExtraContract",
      "outputs": [],
      "stateMutability": "nonpayable",
      "type": "function"
    },
    {
      "inputs": [
        {
          "internalType": "address",
          "name": "extraContract",
          "type": "address"
        }
      ],
      "name": "removeExtraContractForAll",
      "outputs": [],
      "stateMutability": "nonpayable",
      "type": "function"
    },
    {
      "inputs": [
        {
          "internalType": "bytes32",
          "name": "role",
          "type": "bytes32"
        },
        {
          "internalType": "address",
          "name": "account",
          "type": "address"
        }
      ],
      "name": "renounceRole",
      "outputs": [],
      "stateMutability": "nonpayable",
      "type": "function"
    },
    {
      "inputs": [
        {
          "internalType": "bytes32",
          "name": "role",
          "type": "bytes32"
        },
        {
          "internalType": "address",
          "name": "account",
          "type": "address"
        }
      ],
      "name": "revokeRole",
      "outputs": [],
      "stateMutability": "nonpayable",
      "type": "function"
    },
    {
      "inputs": [],
      "name": "schainHash",
      "outputs": [
        {
          "internalType": "bytes32",
          "name": "",
          "type": "bytes32"
        }
      ],
      "stateMutability": "view",
      "type": "function"
    },
    {
      "inputs": [
        {
          "internalType": "uint256",
          "name": "newGasLimit",
          "type": "uint256"
        }
      ],
      "name": "setNewGasLimit",
      "outputs": [],
      "stateMutability": "nonpayable",
      "type": "function"
    },
    {
      "inputs": [
        {
          "internalType": "string",
          "name": "newVersion",
          "type": "string"
        }
      ],
      "name": "setVersion",
      "outputs": [],
      "stateMutability": "nonpayable",
      "type": "function"
    },
    {
      "inputs": [
        {
          "internalType": "bytes4",
          "name": "interfaceId",
          "type": "bytes4"
        }
      ],
      "name": "supportsInterface",
      "outputs": [
        {
          "internalType": "bool",
          "name": "",
          "type": "bool"
        }
      ],
      "stateMutability": "view",
      "type": "function"
    },
    {
      "inputs": [
        {
          "components": [
            {
              "internalType": "bytes32",
              "name": "dstChainHash",
              "type": "bytes32"
            },
            {
              "internalType": "uint256",
              "name": "msgCounter",
              "type": "uint256"
            },
            {
              "internalType": "address",
              "name": "srcContract",
              "type": "address"
            },
            {
              "internalType": "address",
              "name": "dstContract",
              "type": "address"
            },
            {
              "internalType": "bytes",
              "name": "data",
              "type": "bytes"
            }
          ],
          "internalType": "struct IMessageProxyForSchain.OutgoingMessageData",
          "name": "message",
          "type": "tuple"
        }
      ],
      "name": "verifyOutgoingMessageData",
      "outputs": [
        {
          "internalType": "bool",
          "name": "isValidMessage",
          "type": "bool"
        }
      ],
      "stateMutability": "view",
      "type": "function"
    },
    {
      "inputs": [
        {
          "internalType": "bytes32",
          "name": "hashedMessage",
          "type": "bytes32"
        },
        {
          "components": [
            {
              "internalType": "uint256[2]",
              "name": "blsSignature",
              "type": "uint256[2]"
            },
            {
              "internalType": "uint256",
              "name": "hashA",
              "type": "uint256"
            },
            {
              "internalType": "uint256",
              "name": "hashB",
              "type": "uint256"
            },
            {
              "internalType": "uint256",
              "name": "counter",
              "type": "uint256"
            }
          ],
          "internalType": "struct IMessageProxy.Signature",
          "name": "signature",
          "type": "tuple"
        }
      ],
      "name": "verifySignature",
      "outputs": [
        {
          "internalType": "bool",
          "name": "",
          "type": "bool"
        }
      ],
      "stateMutability": "view",
      "type": "function"
    },
    {
      "inputs": [],
      "name": "version",
      "outputs": [
        {
          "internalType": "string",
          "name": "",
          "type": "string"
        }
      ],
      "stateMutability": "view",
      "type": "function"
    }
  ],
  "bytecode": "0x608060405234801561001057600080fd5b506141b6806100206000396000f3fe608060405234801561001057600080fd5b506004361061025e5760003560e01c80636e2f37b011610146578063bbc4e8c2116100c3578063e6ab840311610087578063e6ab840314610578578063f2f63605146105c7578063f399e22e146105da578063f68016b7146105ed578063f79f7954146105f6578063f8c88a161461060957600080fd5b8063bbc4e8c214610510578063bdb40cb014610537578063ca15c8731461053f578063cab010c914610552578063d547741f1461056557600080fd5b806391d148541161010a57806391d14854146104bc57806394489202146104cf578063999ab9aa146104e2578063a217fddf146104f5578063a8bb1b7d146104fd57600080fd5b80636e2f37b01461045d57806377fe0f3114610470578063788bc78c146104835780637aa38a7c146104965780639010d07c146104a957600080fd5b80633cdd2cc3116101df57806354fd4d50116101a357806354fd4d50146103d7578063603e5d13146103ec578063654d8828146103ff5780636660de1c1461041257806367ec6020146104255780636a156b9a1461043857600080fd5b80633cdd2cc31461037a5780634d2038591461038d578063523c8ab6146103a057806352dc24ee146103b557806353498cdd146103c857600080fd5b806328c5e1821161022657806328c5e182146103045780632f2ff15d1461033657806336568abe1461034b5780633b597ffe1461035e5780633b690b6b1461037157600080fd5b806301ffc9a7146102635780630fc307a81461028b57806313c52260146102ac57806321488340146102c1578063248a9ca3146102e1575b600080fd5b610276610271366004613718565b61061c565b60405190151581526020015b60405180910390f35b61029e610299366004613598565b610647565b604051908152602001610282565b61029e60008051602061416183398151915281565b6102d46102cf3660046136ec565b61065e565b6040516102829190613b40565b61029e6102ef366004613598565b60009081526065602052604090206001015490565b61029e6040516613585a5b9b995d60ca1b60208201526027016040516020818303038152906040528051906020012081565b6103496103443660046135ca565b61079d565b005b6103496103593660046135ca565b6107c4565b61034961036c366004613598565b6107e6565b61029e60cd5481565b61034961038836600461385c565b6108ac565b61034961039b36600461353c565b61099a565b61029e60008051602061412183398151915281565b6102766103c336600461369d565b610ad4565b61029e670de0b6b3a764000081565b6103df610ae7565b6040516102829190613bb8565b6103496103fa3660046137d2565b610b75565b61027661040d3660046135ca565b610db5565b610349610420366004613652565b610dcd565b61029e610433366004613791565b610f7d565b61044562695d1f60891b81565b6040516001600160a01b039091168152602001610282565b61034961046b366004613598565b610ff6565b61029e61047e366004613791565b6110d4565b610349610491366004613791565b61117a565b6102766104a4366004613919565b611219565b6104456104b73660046136ca565b611253565b6102766104ca3660046135ca565b61126b565b6103496104dd3660046135fa565b611296565b6102766104f036600461385c565b61134c565b61029e600081565b61034961050b36600461353c565b611395565b61029e7f96e3fc3be15159903e053027cff8a23f39a990e0194abcd8ac1cf1b355b8b93c81565b61029e600a81565b61029e61054d366004613598565b61148f565b610349610560366004613890565b6114a6565b6103496105733660046135ca565b611531565b6105aa610586366004613598565b60c96020526000908152604090208054600182015460029092015490919060ff1683565b604080519384526020840192909252151590820152606001610282565b6103496105d5366004613791565b61153b565b6103496105e8366004613742565b6115c3565b61029e60cb5481565b60cc54610445906001600160a01b031681565b610349610617366004613890565b61170a565b60006001600160e01b03198216635a05180f60e01b1480610641575061064182611795565b92915050565b600081815260d160205260408120610641906117ca565b606081831080156106795750600a6106768484613eca565b11155b801561069b5750600084815260d160205260409020610697906117ca565b8211155b6106e15760405162461bcd60e51b815260206004820152601260248201527114985b99d9481a5cc81a5b98dbdc9c9958dd60721b60448201526064015b60405180910390fd5b6106eb8383613eca565b6001600160401b0381111561070257610702614050565b60405190808252806020026020018201604052801561072b578160200160208202803683370190505b509050825b8281101561079557600085815260d16020526040902061075090826117d4565b8261075b8684613eca565b8151811061076b5761076b61403a565b6001600160a01b03909216602092830291909101909101528061078d81613fc9565b915050610730565b509392505050565b6107a782826117e0565b60008281526097602052604090206107bf9082611806565b505050565b6107ce828261181b565b60008281526097602052604090206107bf9082611895565b6108107f96e3fc3be15159903e053027cff8a23f39a990e0194abcd8ac1cf1b355b8b93c3361126b565b61086b5760405162461bcd60e51b815260206004820152602660248201527f4e6f7420656e6f756768207065726d697373696f6e7320746f2073657420636f6044820152651b9cdd185b9d60d21b60648201526084016106d8565b60cb5460408051918252602082018390527f8abddb75fd50f7583079c0b550ec7a54fa3fd8d5dd1d2dfdc473f7ce27e3b9ac910160405180910390a160cb55565b6108c46000805160206141618339815191523361126b565b6108e05760405162461bcd60e51b81526004016106d890613c7f565b6000816040516020016108f39190613a8b565b604051602081830303815290604052805190602001209050604051602001610928906613585a5b9b995d60ca1b815260070190565b6040516020818303038152906040528051906020012081141561098d5760405162461bcd60e51b815260206004820152601960248201527f4d61696e6e65742063616e6e6f742062652072656d6f7665640000000000000060448201526064016106d8565b610996826118aa565b5050565b6109b26000805160206141218339815191523361126b565b6109ce5760405162461bcd60e51b81526004016106d890613cb4565b6001600160a01b0381163b610a255760405162461bcd60e51b815260206004820152601f60248201527f476976656e2061646472657373206973206e6f74206120636f6e74726163740060448201526064016106d8565b610a418160d15b6000808052602091909152604090209061198d565b15610a5e5760405162461bcd60e51b81526004016106d890613ddf565b6000805260d1602052610a907efa5413e7b01fc543d01f0911de573ace463b956369df4472f39030e8d98b7782611806565b506040516001600160a01b03821681526000907f03bcd152926369e3cf05cb7af471a15d680e8ec5d20b13705048d14e94679365906020015b60405180910390a250565b6000610ae083836119af565b9392505050565b60d28054610af490613f24565b80601f0160208091040260200160405190810160405280929190818152602001828054610b2090613f24565b8015610b6d5780601f10610b4257610100808354040283529160200191610b6d565b820191906000526020600020905b815481529060010190602001808311610b5057829003601f168201915b505050505081565b60008686604051602001610b8a929190613a7b565b60408051601f198184030181529181528151602092830120600081815260c990935291206002015490915060ff16610bff5760405162461bcd60e51b815260206004820152601860248201527710da185a5b881a5cc81b9bdd081a5b9a5d1a585b1a5e995960421b60448201526064016106d8565b600a831115610c445760405162461bcd60e51b8152602060048201526011602482015270546f6f206d616e79206d6573736167657360781b60448201526064016106d8565b610c5a610c548585888b8b611a5c565b836119af565b610ca65760405162461bcd60e51b815260206004820152601960248201527f5369676e6174757265206973206e6f742076657269666965640000000000000060448201526064016106d8565b600081815260c960205260409020548514610d295760405162461bcd60e51b815260206004820152603860248201527f5374617274696e6720636f756e746572206973206e6f74207175616c20746f2060448201527f696e636f6d696e67206d65737361676520636f756e746572000000000000000060648201526084016106d8565b60005b83811015610d7f57610d6c82868684818110610d4a57610d4a61403a565b9050602002810190610d5c9190613e69565b610d67896001613e7f565b611bd7565b5080610d7781613fc9565b915050610d2c565b50600081815260c9602052604081208054859290610d9e908490613e7f565b90915550610dac9050611e02565b50505050505050565b600082815260d160205260408120610ae0908361198d565b610dd860003361126b565b610e245760405162461bcd60e51b815260206004820152601860248201527f53656e646572206973206e6f7420617574686f72697a6564000000000000000060448201526064016106d8565b60005b81811015610f7757600084815260ca6020526040812090848484818110610e5057610e5061403a565b9050602002016020810190610e65919061353c565b6001600160a01b0316815260208101919091526040016000205460ff168015610ec95750610ec7838383818110610e9e57610e9e61403a565b9050602002016020810190610eb3919061353c565b600086815260d1602052604090209061198d565b155b15610f6557610f0c838383818110610ee357610ee361403a565b9050602002016020810190610ef8919061353c565b600086815260d16020526040902090611806565b50600084815260ca6020526040812090848484818110610f2e57610f2e61403a565b9050602002016020810190610f43919061353c565b6001600160a01b031681526020810191909152604001600020805460ff191690555b80610f6f81613fc9565b915050610e27565b50505050565b6000808383604051602001610f93929190613a7b565b60408051601f198184030181529181528151602092830120600081815260c990935291206002015490915060ff16610fdd5760405162461bcd60e51b81526004016106d890613d4b565b600090815260c960205260409020600101549392505050565b600054610100900460ff168061100f575060005460ff16155b61102b5760405162461bcd60e51b81526004016106d890613cfd565b600054610100900460ff1615801561104d576000805461ffff19166101011790555b611055611fed565b611060600033612079565b61107860008051602061416183398151915233612079565b61109060008051602061412183398151915233612079565b6110ba7f96e3fc3be15159903e053027cff8a23f39a990e0194abcd8ac1cf1b355b8b93c33612079565b60cb8290558015610996576000805461ff00191690555050565b60008083836040516020016110ea929190613a7b565b60408051601f198184030181529181528151602092830120600081815260c990935291206002015490915060ff166111645760405162461bcd60e51b815260206004820152601f60248201527f536f7572636520636861696e206973206e6f7420696e697469616c697a65640060448201526064016106d8565b600090815260c960205260409020549392505050565b61118560003361126b565b6111d15760405162461bcd60e51b815260206004820152601e60248201527f44454641554c545f41444d494e5f524f4c45206973207265717569726564000060448201526064016106d8565b7f22efc5f993dce37856b77dd72d7d7661032380c9728c4133f3c071c591bc6ca760d2838360405161120593929190613bcb565b60405180910390a16107bf60d283836132db565b8051600090815260ce6020908152604080832082850151845290915281205461124183612083565b81141561124d57600191505b50919050565b6000828152609760205260408120610ae090836117d4565b60009182526065602090815260408084206001600160a01b0393909316845291905290205460ff1690565b6112a18383836120f9565b60006040518060a00160405280858152602001600160c96000888152602001908152602001600020600101546112d79190613eca565b81523360208201526001600160a01b0385166040820152606001839052805190915061130282612083565b600082815260ce6020908152604080832060d08084528285208054865291845291842094909455848352905281546001929190611340908490613e7f565b90915550505050505050565b600060c96000836040516020016113639190613a8b565b60408051601f198184030181529181528151602092830120835290820192909252016000206002015460ff1692915050565b6113ad6000805160206141218339815191523361126b565b6113c95760405162461bcd60e51b81526004016106d890613cb4565b6113d48160d1610a2c565b6114205760405162461bcd60e51b815260206004820181905260248201527f457874726120636f6e7472616374206973206e6f74207265676973746572656460448201526064016106d8565b6000805260d16020526114527efa5413e7b01fc543d01f0911de573ace463b956369df4472f39030e8d98b7782611895565b506040516001600160a01b03821681526000907f4d393b64277bfc0b02e0459a74c316c7f22069352a678319fd8139ba4085e06190602001610ac9565b6000818152609760205260408120610641906117ca565b6114be6000805160206141218339815191523361126b565b6114da5760405162461bcd60e51b81526004016106d890613cb4565b6000826040516020016114ed9190613a8b565b60405160208183030381529060405280519060200120905060cd548114156115275760405162461bcd60e51b81526004016106d890613d8f565b6107bf81836121bf565b6107ce828261231f565b60008282604051602001611550929190613a7b565b60405160208183030381529060405280519060200120905060cd548114156115ba5760405162461bcd60e51b815260206004820152601c60248201527f53636861696e2063616e6e6f7420636f6e6e65637420697473656c660000000060448201526064016106d8565b6107bf81612345565b600054610100900460ff16806115dc575060005460ff16155b6115f85760405162461bcd60e51b81526004016106d890613cfd565b600054610100900460ff1615801561161a576000805461ffff19166101011790555b611626622dc6c0610ff6565b60cc80546001600160a01b0385166001600160a01b031990911617905560408051606081018252600080825260208083018290526001838501529251919260c99261167f91016613585a5b9b995d60ca1b815260070190565b60408051808303601f19018152918152815160209283012083528282019390935290820160002083518155838201516001820155928201516002909301805460ff191693151593909317909255516116d991849101613a8b565b60408051601f19818403018152919052805160209091012060cd5580156107bf576000805461ff0019169055505050565b6117226000805160206141218339815191523361126b565b61173e5760405162461bcd60e51b81526004016106d890613cb4565b6000826040516020016117519190613a8b565b60405160208183030381529060405280519060200120905060cd5481141561178b5760405162461bcd60e51b81526004016106d890613d8f565b6107bf818361242b565b60006001600160e01b03198216637965db0b60e01b148061064157506301ffc9a760e01b6001600160e01b0319831614610641565b6000610641825490565b6000610ae083836124d6565b6000828152606560205260409020600101546117fc8133612500565b6107bf8383612564565b6000610ae0836001600160a01b0384166125ea565b6001600160a01b038116331461188b5760405162461bcd60e51b815260206004820152602f60248201527f416363657373436f6e74726f6c3a2063616e206f6e6c792072656e6f756e636560448201526e103937b632b9903337b91039b2b63360891b60648201526084016106d8565b6109968282612639565b6000610ae0836001600160a01b0384166126a0565b6118c26000805160206141618339815191523361126b565b6118de5760405162461bcd60e51b81526004016106d890613c7f565b6000816040516020016118f19190613a8b565b60408051601f198184030181529181528151602092830120600081815260c990935291206002015490915060ff166119665760405162461bcd60e51b815260206004820152601860248201527710da185a5b881a5cc81b9bdd081a5b9a5d1a585b1a5e995960421b60448201526064016106d8565b600090815260c9602052604081208181556001810191909155600201805460ff1916905550565b6001600160a01b03811660009081526001830160205260408120541515610ae0565b604080518082018252823581526020808401359082015260cc548251632aa77bd360e11b81528351600094610ae0949388936080808a013594938a01359360608b0135936001600160a01b03169263554ef7a6926004808301939192829003018186803b158015611a1f57600080fd5b505afa158015611a33573d6000803e3d6000fd5b505050506040513d601f19601f82011682018060405250810190611a5791906138d6565b61279a565b6000808383604051602001611a72929190613a7b565b60408051808303601f190181528282528051602091820120908301819052908201879052915060009060600160405160208183030381529060405280519060200120905060005b87811015611bcb5781898983818110611ad457611ad461403a565b9050602002810190611ae69190613e69565b611af490602081019061353c565b8a8a84818110611b0657611b0661403a565b9050602002810190611b189190613e69565b611b2990604081019060200161353c565b6040805160208101949094526001600160a01b0392831690840152166060820152608001604051602081830303815290604052898983818110611b6e57611b6e61403a565b9050602002810190611b809190613e69565b611b8e906040810190613e23565b604051602001611ba093929190613a53565b6040516020818303038152906040528051906020012091508080611bc390613fc9565b915050611ab9565b50979650505050505050565b6000611bfb611bec604085016020860161353c565b6001600160a01b03163b151590565b611c7e57817f4b7d3908626050c0d998d657e4e6f31cb43ed736bf2b9a1a0192494537ca0e59604051611c6e9060208082526026908201527f44657374696e6174696f6e20636f6e7472616374206973206e6f74206120636f6040820152651b9d1c9858dd60d21b606082015260800190565b60405180910390a2506000610ae0565b611c8e604084016020850161353c565b6001600160a01b031663884cee5a60cb5486866000016020810190611cb3919061353c565b611cc06040890189613e23565b6040518663ffffffff1660e01b8152600401611cdf9493929190613b8d565b602060405180830381600088803b158015611cf957600080fd5b5087f193505050508015611d2a575060408051601f3d908101601f19168201909252611d2791810190613559565b60015b611dfa57611d36614066565b806308c379a01415611d985750611d4b614082565b80611d565750611d9a565b827f4b7d3908626050c0d998d657e4e6f31cb43ed736bf2b9a1a0192494537ca0e5982604051611d869190613bb8565b60405180910390a26000915050610ae0565b505b3d808015611dc4576040519150601f19603f3d011682016040523d82523d6000602084013e611dc9565b606091505b50827f4b7d3908626050c0d998d657e4e6f31cb43ed736bf2b9a1a0192494537ca0e5982604051611d869190613bb8565b949350505050565b60003a5a611e109190613eab565b611e1b903331613e7f565b905062695d1f60891b803b15801590611f245750806001600160a01b03166391d14854826001600160a01b031663bc2a1e8d6040518163ffffffff1660e01b815260040160206040518083038186803b158015611e7757600080fd5b505afa158015611e8b573d6000803e3d6000fd5b505050506040513d601f19601f82011682018060405250810190611eaf91906135b1565b6040516001600160e01b031960e084901b168152600481019190915230602482015260440160206040518083038186803b158015611eec57600080fd5b505afa158015611f00573d6000803e3d6000fd5b505050506040513d601f19601f82011682018060405250810190611f249190613576565b8015611f375750670de0b6b3a764000082105b15610996576000611f5083670de0b6b3a7640000613eca565b9050816001600160a01b031631811015611fc15760405163204a3e9360e01b8152336004820152602481018290526001600160a01b0383169063204a3e93906044015b600060405180830381600087803b158015611fad57600080fd5b505af1158015610dac573d6000803e3d6000fd5b604051630a79309b60e01b81523360048201526001600160a01b03831690630a79309b90602401611f93565b600054610100900460ff1680612006575060005460ff16155b6120225760405162461bcd60e51b81526004016106d890613cfd565b600054610100900460ff16158015612044576000805461ffff19166101011790555b61204c612964565b612054612964565b61205c612964565b612064612964565b8015612076576000805461ff00191690555b50565b6107a782826129ce565b6000808260000151836020015160001b846040015160601b6bffffffffffffffffffffffff1916856060015160601b6bffffffffffffffffffffffff191686608001516040516020016120da959493929190613a18565b60408051601f1981840301815291905280516020909101209392505050565b600083815260c9602052604090206002015460ff1661212a5760405162461bcd60e51b81526004016106d890613d4b565b612133836129d8565b336001600160a01b031660c9600085815260200190815260200160002060010154847f803d7f3ca0e5f93fcce39fa29812ed57a95a151594966e17125220132741c6b08585604051612186929190613b1c565b60405180910390a4600160c9600085815260200190815260200160002060010160008282546121b59190613e7f565b9091555050505050565b6001600160a01b0381163b6122165760405162461bcd60e51b815260206004820152601f60248201527f476976656e2061646472657373206973206e6f74206120636f6e74726163740060448201526064016106d8565b6122328160d15b6000858152602091909152604090209061198d565b1561224f5760405162461bcd60e51b81526004016106d890613ddf565b61225a8160d1610a2c565b156122c35760405162461bcd60e51b815260206004820152603360248201527f457874726120636f6e747261637420697320616c7265616479207265676973746044820152726572656420666f7220616c6c20636861696e7360681b60648201526084016106d8565b600082815260d1602052604090206122db9082611806565b506040516001600160a01b038216815282907f03bcd152926369e3cf05cb7af471a15d680e8ec5d20b13705048d14e94679365906020015b60405180910390a25050565b60008281526065602052604090206001015461233b8133612500565b6107bf8383612639565b61235d6000805160206141618339815191523361126b565b6123795760405162461bcd60e51b81526004016106d890613c7f565b600081815260c9602052604090206002015460ff16156123db5760405162461bcd60e51b815260206004820152601a60248201527f436861696e20697320616c726561647920636f6e6e656374656400000000000060448201526064016106d8565b6040805160608101825260008082526020808301828152600184860181815296845260c9909252939091209151825591519181019190915590516002909101805460ff1916911515919091179055565b6124368160d161221d565b6124825760405162461bcd60e51b815260206004820181905260248201527f457874726120636f6e7472616374206973206e6f74207265676973746572656460448201526064016106d8565b600082815260d16020526040902061249a9082611895565b506040516001600160a01b038216815282907f4d393b64277bfc0b02e0459a74c316c7f22069352a678319fd8139ba4085e06190602001612313565b60008260000182815481106124ed576124ed61403a565b9060005260206000200154905092915050565b61250a828261126b565b61099657612522816001600160a01b03166014612a49565b61252d836020612a49565b60405160200161253e929190613aa7565b60408051601f198184030181529082905262461bcd60e51b82526106d891600401613bb8565b61256e828261126b565b6109965760008281526065602090815260408083206001600160a01b03851684529091529020805460ff191660011790556125a63390565b6001600160a01b0316816001600160a01b0316837f2f8788117e7eff1d82e926ec794901d17c78024a50270940304540a733656f0d60405160405180910390a45050565b600081815260018301602052604081205461263157508154600181810184556000848152602080822090930184905584548482528286019093526040902091909155610641565b506000610641565b612643828261126b565b156109965760008281526065602090815260408083206001600160a01b0385168085529252808320805460ff1916905551339285917ff6391f5c32d9c69d2a47ea670b442974b53935d1edc7fd64eb21e047a839171b9190a45050565b600081815260018301602052604081205480156127895760006126c4600183613eca565b85549091506000906126d890600190613eca565b905081811461273d5760008660000182815481106126f8576126f861403a565b906000526020600020015490508087600001848154811061271b5761271b61403a565b6000918252602080832090910192909255918252600188019052604090208390555b855486908061274e5761274e614024565b600190038181906000526020600020016000905590558560010160008681526020019081526020016000206000905560019350505050610641565b6000915050610641565b5092915050565b60006127a587612be4565b6127ea5760405162461bcd60e51b815260206004820152601660248201527514da59db985d1d5c99481a5cc81b9bdd081d985b1a5960521b60448201526064016106d8565b6127f686868686612c1a565b6128025750600061295a565b60006128118860200151612d06565b9050612821886000015182612d2b565b61285e5760405162461bcd60e51b815260206004820152600e60248201526d5369676e206e6f7420696e20473160901b60448201526064016106d8565b6128688585612d2b565b6128a55760405162461bcd60e51b815260206004820152600e60248201526d48617368206e6f7420696e20473160901b60448201526064016106d8565b60006128af612d61565b90506128ba84612e21565b6128fd5760405162461bcd60e51b8152602060048201526014602482015273283ab13634b19025b2bc903737ba1034b710239960611b60448201526064016106d8565b6129558960000151838360000151602001518460000151600001518560200151602001518660200151600001518c8c8c60000151602001518d60000151600001518e60200151602001518f6020015160000151612e35565b925050505b9695505050505050565b600054610100900460ff168061297d575060005460ff16155b6129995760405162461bcd60e51b81526004016106d890613cfd565b600054610100900460ff16158015612064576000805461ffff19166101011790558015612076576000805461ff001916905550565b6109968282612564565b6129e3600033610db5565b806129f357506129f38133610db5565b6120765760405162461bcd60e51b815260206004820152602160248201527f53656e64657220636f6e7472616374206973206e6f74207265676973746572656044820152601960fa1b60648201526084016106d8565b60606000612a58836002613eab565b612a63906002613e7f565b6001600160401b03811115612a7a57612a7a614050565b6040519080825280601f01601f191660200182016040528015612aa4576020820181803683370190505b509050600360fc1b81600081518110612abf57612abf61403a565b60200101906001600160f81b031916908160001a905350600f60fb1b81600181518110612aee57612aee61403a565b60200101906001600160f81b031916908160001a9053506000612b12846002613eab565b612b1d906001613e7f565b90505b6001811115612b95576f181899199a1a9b1b9c1cb0b131b232b360811b85600f1660108110612b5157612b5161403a565b1a60f81b828281518110612b6757612b6761403a565b60200101906001600160f81b031916908160001a90535060049490941c93612b8e81613f0d565b9050612b20565b508315610ae05760405162461bcd60e51b815260206004820181905260248201527f537472696e67733a20686578206c656e67746820696e73756666696369656e7460448201526064016106d8565b60006000805160206141418339815191528260000151108015610641575050602001516000805160206141418339815191521190565b60006064841115612c2d57506000611dfa565b6000612c4760008051602061414183398151915287613fe4565b9050600080516020614141833981519152612c628683613e7f565b612c6c9190613fe4565b9050600060008051602061414183398151915260036000805160206141418339815191528460008051602061414183398151915286870909089050612cc06002600080516020614141833981519152613e97565b841080612cde57508060008051602061414183398151915285860914155b80612ce95750848214155b15612cf957600092505050611dfa565b5060019695505050505050565b6000600080516020614141833981519152612d218382613eca565b6106419190613fe4565b600060008051602061414183398151915280600381868188890909088180612d5557612d5561400e565b84850914949350505050565b612d6961335f565b50604080516080810182527f1800deef121f1e76426a00665e5c4479674322d4f75edadd46debd5cd992f6ed8183019081527f198e9393920d483a7260bfb731fb5d25f1aa493335a9e71297e485b7aef312c26060830152815281518083019092527f12c85ea5db8c6deb4aab71808dcb408fe3d1e7690c43d37b4ce6cc0166fa7daa82527f090689d0585ff075ec9e99ad690c3395bc4b313370b38ef355acdadcd122975b60208381019190915281019190915290565b600061064182600001518360200151612f05565b600080612e406133a3565b8e8152602081018e9052604081018d9052606081018c9052608081018b905260a081018a905260c0810189905260e081018890526101008101879052610120810186905261014081018590526101608101849052612e9c6133c2565b602081610180846008600019fa925082612eef5760405162461bcd60e51b815260206004820152601460248201527314185a5c9a5b99c818da1958dac819985a5b195960621b60448201526064016106d8565b5115159f9e505050505050505050505050505050565b6000612f118383612fd9565b15612f1e57506001610641565b6000612f298361300c565b90506000612fbc612f99604080518082018252600080825260209182015281518083019092527f2b149d40ceb8aaae81be18991be06ac3b5b4c5e559dbefa33267e6dc24a138e582527e9713b03af0fed4cd2cafadeed8fdf4a74fa084e52d1852e4a2bd0685c315d29082015290565b612fb6612faf88612fa98a61300c565b906130c2565b85906131d5565b906131d5565b8051909150158015612fd057506020810151155b95945050505050565b8151600090158015612fed57506020830151155b8015612ffa575081516001145b8015610ae05750506020015115919050565b6040805180820190915260008082526020820152600080516020614141833981519152600081602085015185510990506000828061304c5761304c61400e565b838061305a5761305a61400e565b84806130685761306861400e565b6020880151613078600188613eca565b09875108848061308a5761308a61400e565b6020880151885108099050604051806040016040528082815260200184806130b4576130b461400e565b848508905295945050505050565b6040805180820190915260008082526020820152600060008051602061414183398151915290506000604051806040016040528083806131045761310461400e565b86518851098152602001838061311c5761311c61400e565b86602001518860200151099052905081806131395761313961400e565b82806131475761314761400e565b6020830151613157600186613eca565b098251088352818061316b5761316b61400e565b82806131795761317961400e565b602083015183510861318b9084613eca565b83806131995761319961400e565b84806131a7576131a761400e565b602088015188510885806131bd576131bd61400e565b60208a01518a51080908602084015250909392505050565b60408051808201909152600080825260208201528151835160008051602061414183398151915291116132265780806132105761321061400e565b835161321c9083613eca565b855108825261325b565b8081806132355761323561400e565b85516132419084613eca565b85510861324e9083613eca565b6132589190613fe4565b82525b82602001518460200151106132975780806132785761327861400e565b60208401516132879083613eca565b8560200151086020830152612793565b8081806132a6576132a661400e565b60208601516132b59084613eca565b8560200151086132c59083613eca565b6132cf9190613fe4565b60208301525092915050565b8280546132e790613f24565b90600052602060002090601f016020900481019282613309576000855561334f565b82601f106133225782800160ff1982351617855561334f565b8280016001018555821561334f579182015b8281111561334f578235825591602001919060010190613334565b5061335b9291506133e0565b5090565b6040805160808101825260009181018281526060820192909252908190815260200161339e604051806040016040528060008152602001600081525090565b905290565b604051806101800160405280600c906020820280368337509192915050565b60405180602001604052806001906020820280368337509192915050565b5b8082111561335b57600081556001016133e1565b60008083601f84011261340757600080fd5b5081356001600160401b0381111561341e57600080fd5b6020830191508360208260051b850101111561343957600080fd5b9250929050565b600082601f83011261345157600080fd5b81356001600160401b0381111561346a5761346a614050565b604051613481601f8301601f191660200182613f9d565b81815284602083860101111561349657600080fd5b816020850160208301376000918101602001919091529392505050565b60008083601f8401126134c557600080fd5b5081356001600160401b038111156134dc57600080fd5b60208301915083602082850101111561343957600080fd5b60006040828403121561350657600080fd5b60405161351281613f59565b80915082518152602083015160208201525092915050565b600060a0828403121561124d57600080fd5b60006020828403121561354e57600080fd5b8135610ae08161410b565b60006020828403121561356b57600080fd5b8151610ae08161410b565b60006020828403121561358857600080fd5b81518015158114610ae057600080fd5b6000602082840312156135aa57600080fd5b5035919050565b6000602082840312156135c357600080fd5b5051919050565b600080604083850312156135dd57600080fd5b8235915060208301356135ef8161410b565b809150509250929050565b60008060006060848603121561360f57600080fd5b8335925060208401356136218161410b565b915060408401356001600160401b0381111561363c57600080fd5b61364886828701613440565b9150509250925092565b60008060006040848603121561366757600080fd5b8335925060208401356001600160401b0381111561368457600080fd5b613690868287016133f5565b9497909650939450505050565b60008060c083850312156136b057600080fd5b823591506136c1846020850161352a565b90509250929050565b600080604083850312156136dd57600080fd5b50508035926020909101359150565b60008060006060848603121561370157600080fd5b505081359360208301359350604090920135919050565b60006020828403121561372a57600080fd5b81356001600160e01b031981168114610ae057600080fd5b6000806040838503121561375557600080fd5b82356137608161410b565b915060208301356001600160401b0381111561377b57600080fd5b61378785828601613440565b9150509250929050565b600080602083850312156137a457600080fd5b82356001600160401b038111156137ba57600080fd5b6137c6858286016134b3565b90969095509350505050565b60008060008060008061010087890312156137ec57600080fd5b86356001600160401b038082111561380357600080fd5b61380f8a838b016134b3565b909850965060208901359550604089013591508082111561382f57600080fd5b5061383c89828a016133f5565b90945092506138509050886060890161352a565b90509295509295509295565b60006020828403121561386e57600080fd5b81356001600160401b0381111561388457600080fd5b611dfa84828501613440565b600080604083850312156138a357600080fd5b82356001600160401b038111156138b957600080fd5b6138c585828601613440565b92505060208301356135ef8161410b565b6000608082840312156138e857600080fd5b6040516138f481613f59565b6138fe84846134f4565b815261390d84604085016134f4565b60208201529392505050565b60006020828403121561392b57600080fd5b81356001600160401b038082111561394257600080fd5b9083019060a0828603121561395657600080fd5b60405161396281613f7e565b8235815260208301356020820152604083013561397e8161410b565b604082015260608301356139918161410b565b60608201526080830135828111156139a857600080fd5b6139b487828601613440565b60808301525095945050505050565b81835281816020850137506000828201602090810191909152601f909101601f19169091010190565b60008151808452613a04816020860160208601613ee1565b601f01601f19169290920160200192915050565b85815284602082015283604082015282606082015260008251613a42816080850160208701613ee1565b919091016080019695505050505050565b60008451613a65818460208901613ee1565b8201838582376000930192835250909392505050565b8183823760009101908152919050565b60008251613a9d818460208701613ee1565b9190910192915050565b7f416363657373436f6e74726f6c3a206163636f756e7420000000000000000000815260008351613adf816017850160208801613ee1565b7001034b99036b4b9b9b4b733903937b6329607d1b6017918401918201528351613b10816028840160208801613ee1565b01602801949350505050565b6001600160a01b0383168152604060208201819052600090611dfa908301846139ec565b6020808252825182820181905260009190848201906040850190845b81811015613b815783516001600160a01b031683529284019291840191600101613b5c565b50909695505050505050565b8481526001600160a01b038416602082015260606040820181905260009061295a90830184866139c3565b602081526000610ae060208301846139ec565b60408152600080855481600182811c915080831680613beb57607f831692505b6020808410821415613c0b57634e487b7160e01b86526022600452602486fd5b6040880184905260608801828015613c2a5760018114613c3b57613c66565b60ff19871682528282019750613c66565b60008d81526020902060005b87811015613c6057815484820152908601908401613c47565b83019850505b505087860381890152505050505061295a8185876139c3565b6020808252818101527f434841494e5f434f4e4e4543544f525f524f4c45206973207265717569726564604082015260600190565b60208082526029908201527f45585452415f434f4e54524143545f5245474953545241525f524f4c45206973604082015268081c995c5d5a5c995960ba1b606082015260800190565b6020808252602e908201527f496e697469616c697a61626c653a20636f6e747261637420697320616c72656160408201526d191e481a5b9a5d1a585b1a5e995960921b606082015260800190565b60208082526024908201527f44657374696e6174696f6e20636861696e206973206e6f7420696e697469616c6040820152631a5e995960e21b606082015260800190565b60208082526030908201527f44657374696e6174696f6e20636861696e20686173682063616e6e6f7420626560408201526f1032b8bab0b6103a379034ba39b2b63360811b606082015260800190565b60208082526024908201527f457874726120636f6e747261637420697320616c726561647920726567697374604082015263195c995960e21b606082015260800190565b6000808335601e19843603018112613e3a57600080fd5b8301803591506001600160401b03821115613e5457600080fd5b60200191503681900382131561343957600080fd5b60008235605e19833603018112613a9d57600080fd5b60008219821115613e9257613e92613ff8565b500190565b600082613ea657613ea661400e565b500490565b6000816000190483118215151615613ec557613ec5613ff8565b500290565b600082821015613edc57613edc613ff8565b500390565b60005b83811015613efc578181015183820152602001613ee4565b83811115610f775750506000910152565b600081613f1c57613f1c613ff8565b506000190190565b600181811c90821680613f3857607f821691505b6020821081141561124d57634e487b7160e01b600052602260045260246000fd5b604081018181106001600160401b0382111715613f7857613f78614050565b60405250565b60a081018181106001600160401b0382111715613f7857613f78614050565b601f8201601f191681016001600160401b0381118282101715613fc257613fc2614050565b6040525050565b6000600019821415613fdd57613fdd613ff8565b5060010190565b600082613ff357613ff361400e565b500690565b634e487b7160e01b600052601160045260246000fd5b634e487b7160e01b600052601260045260246000fd5b634e487b7160e01b600052603160045260246000fd5b634e487b7160e01b600052603260045260246000fd5b634e487b7160e01b600052604160045260246000fd5b600060033d111561407f5760046000803e5060005160e01c5b90565b600060443d10156140905790565b6040516003193d81016004833e81513d6001600160401b0381602484011181841117156140bf57505050505090565b82850191508151818111156140d75750505050505090565b843d87010160208285010111156140f15750505050505090565b61410060208286010187613f9d565b509095945050505050565b6001600160a01b038116811461207657600080fdfe6155b5aac15ce9aa193c0527a6f43be0a36a7e2e7496c2b615c0e5f92284277330644e72e131a029b85045b68181585d97816a916871ca8d3c208c16d87cfd472785f35fe7d8743aa971942d8474737bb31895d396eff2cc688a481e0221e191a264697066735822122034f76e1e62efa8b61b15645809173d8bc9bd0b32a781a1df762e73e109fd56ba64736f6c63430008060033",
  "linkReferences": {},
  "deployedLinkReferences": {}
}