{
  "_format": "hh-sol-artifact-1",
  "contractName": "TokenManagerEth",
  "sourceName": "contracts/schain/TokenManagers/TokenManagerEth.sol",
  "abi": [
    {
      "anonymous": false,
      "inputs": [
        {
          "indexed": false,
          "internalType": "address",
          "name": "oldValue",
          "type": "address"
        },
        {
          "indexed": false,
          "internalType": "address",
          "name": "newValue",
          "type": "address"
        }
      ],
      "name": "DepositBoxWasChanged",
      "type": "event"
    },
    {
      "anonymous": false,
      "inputs": [
        {
          "indexed": true,
          "internalType": "bytes32",
          "name": "role",
          "type": "bytes32"
        },
        {
          "indexed": true,
          "internalType": "bytes32",
          "name": "previousAdminRole",
          "type": "bytes32"
        },
        {
          "indexed": true,
          "internalType": "bytes32",
          "name": "newAdminRole",
          "type": "bytes32"
        }
      ],
      "name": "RoleAdminChanged",
      "type": "event"
    },
    {
      "anonymous": false,
      "inputs": [
        {
          "indexed": true,
          "internalType": "bytes32",
          "name": "role",
          "type": "bytes32"
        },
        {
          "indexed": true,
          "internalType": "address",
          "name": "account",
          "type": "address"
        },
        {
          "indexed": true,
          "internalType": "address",
          "name": "sender",
          "type": "address"
        }
      ],
      "name": "RoleGranted",
      "type": "event"
    },
    {
      "anonymous": false,
      "inputs": [
        {
          "indexed": true,
          "internalType": "bytes32",
          "name": "role",
          "type": "bytes32"
        },
        {
          "indexed": true,
          "internalType": "address",
          "name": "account",
          "type": "address"
        },
        {
          "indexed": true,
          "internalType": "address",
          "name": "sender",
          "type": "address"
        }
      ],
      "name": "RoleRevoked",
      "type": "event"
    },
    {
      "inputs": [],
      "name": "AUTOMATIC_DEPLOY_ROLE",
      "outputs": [
        {
          "internalType": "bytes32",
          "name": "",
          "type": "bytes32"
        }
      ],
      "stateMutability": "view",
      "type": "function"
    },
    {
      "inputs": [],
      "name": "DEFAULT_ADMIN_ROLE",
      "outputs": [
        {
          "internalType": "bytes32",
          "name": "",
          "type": "bytes32"
        }
      ],
      "stateMutability": "view",
      "type": "function"
    },
    {
      "inputs": [],
      "name": "MAINNET_HASH",
      "outputs": [
        {
          "internalType": "bytes32",
          "name": "",
          "type": "bytes32"
        }
      ],
      "stateMutability": "view",
      "type": "function"
    },
    {
      "inputs": [],
      "name": "MAINNET_NAME",
      "outputs": [
        {
          "internalType": "string",
          "name": "",
          "type": "string"
        }
      ],
      "stateMutability": "view",
      "type": "function"
    },
    {
      "inputs": [],
      "name": "TOKEN_REGISTRAR_ROLE",
      "outputs": [
        {
          "internalType": "bytes32",
          "name": "",
          "type": "bytes32"
        }
      ],
      "stateMutability": "view",
      "type": "function"
    },
    {
      "inputs": [
        {
          "internalType": "string",
          "name": "schainName",
          "type": "string"
        },
        {
          "internalType": "address",
          "name": "newTokenManager",
          "type": "address"
        }
      ],
      "name": "addTokenManager",
      "outputs": [],
      "stateMutability": "nonpayable",
      "type": "function"
    },
    {
      "inputs": [],
      "name": "automaticDeploy",
      "outputs": [
        {
          "internalType": "bool",
          "name": "",
          "type": "bool"
        }
      ],
      "stateMutability": "view",
      "type": "function"
    },
    {
      "inputs": [
        {
          "internalType": "address",
          "name": "newDepositBox",
          "type": "address"
        }
      ],
      "name": "changeDepositBoxAddress",
      "outputs": [],
      "stateMutability": "nonpayable",
      "type": "function"
    },
    {
      "inputs": [],
      "name": "communityLocker",
      "outputs": [
        {
          "internalType": "contract ICommunityLocker",
          "name": "",
          "type": "address"
        }
      ],
      "stateMutability": "view",
      "type": "function"
    },
    {
      "inputs": [],
      "name": "depositBox",
      "outputs": [
        {
          "internalType": "address",
          "name": "",
          "type": "address"
        }
      ],
      "stateMutability": "view",
      "type": "function"
    },
    {
      "inputs": [],
      "name": "disableAutomaticDeploy",
      "outputs": [],
      "stateMutability": "nonpayable",
      "type": "function"
    },
    {
      "inputs": [],
      "name": "enableAutomaticDeploy",
      "outputs": [],
      "stateMutability": "nonpayable",
      "type": "function"
    },
    {
      "inputs": [],
      "name": "ethErc20",
      "outputs": [
        {
          "internalType": "contract IEthErc20",
          "name": "",
          "type": "address"
        }
      ],
      "stateMutability": "view",
      "type": "function"
    },
    {
      "inputs": [
        {
          "internalType": "uint256",
          "name": "amount",
          "type": "uint256"
        }
      ],
      "name": "exitToMain",
      "outputs": [],
      "stateMutability": "nonpayable",
      "type": "function"
    },
    {
      "inputs": [
        {
          "internalType": "bytes32",
          "name": "role",
          "type": "bytes32"
        }
      ],
      "name": "getRoleAdmin",
      "outputs": [
        {
          "internalType": "bytes32",
          "name": "",
          "type": "bytes32"
        }
      ],
      "stateMutability": "view",
      "type": "function"
    },
    {
      "inputs": [
        {
          "internalType": "bytes32",
          "name": "role",
          "type": "bytes32"
        },
        {
          "internalType": "uint256",
          "name": "index",
          "type": "uint256"
        }
      ],
      "name": "getRoleMember",
      "outputs": [
        {
          "internalType": "address",
          "name": "",
          "type": "address"
        }
      ],
      "stateMutability": "view",
      "type": "function"
    },
    {
      "inputs": [
        {
          "internalType": "bytes32",
          "name": "role",
          "type": "bytes32"
        }
      ],
      "name": "getRoleMemberCount",
      "outputs": [
        {
          "internalType": "uint256",
          "name": "",
          "type": "uint256"
        }
      ],
      "stateMutability": "view",
      "type": "function"
    },
    {
      "inputs": [
        {
          "internalType": "bytes32",
          "name": "role",
          "type": "bytes32"
        },
        {
          "internalType": "address",
          "name": "account",
          "type": "address"
        }
      ],
      "name": "grantRole",
      "outputs": [],
      "stateMutability": "nonpayable",
      "type": "function"
    },
    {
      "inputs": [
        {
          "internalType": "bytes32",
          "name": "role",
          "type": "bytes32"
        },
        {
          "internalType": "address",
          "name": "account",
          "type": "address"
        }
      ],
      "name": "hasRole",
      "outputs": [
        {
          "internalType": "bool",
          "name": "",
          "type": "bool"
        }
      ],
      "stateMutability": "view",
      "type": "function"
    },
    {
      "inputs": [
        {
          "internalType": "string",
          "name": "schainName",
          "type": "string"
        }
      ],
      "name": "hasTokenManager",
      "outputs": [
        {
          "internalType": "bool",
          "name": "",
          "type": "bool"
        }
      ],
      "stateMutability": "view",
      "type": "function"
    },
    {
      "inputs": [
        {
          "internalType": "string",
          "name": "newChainName",
          "type": "string"
        },
        {
          "internalType": "contract IMessageProxyForSchain",
          "name": "newMessageProxy",
          "type": "address"
        },
        {
          "internalType": "contract ITokenManagerLinker",
          "name": "newIMALinker",
          "type": "address"
        },
        {
          "internalType": "contract ICommunityLocker",
          "name": "newCommunityLocker",
          "type": "address"
        },
        {
          "internalType": "address",
          "name": "newDepositBox",
          "type": "address"
        },
        {
          "internalType": "contract IEthErc20",
          "name": "ethErc20Address",
          "type": "address"
        }
      ],
      "name": "initialize",
      "outputs": [],
      "stateMutability": "nonpayable",
      "type": "function"
    },
    {
      "inputs": [
        {
          "internalType": "string",
          "name": "newSchainName",
          "type": "string"
        },
        {
          "internalType": "contract IMessageProxyForSchain",
          "name": "newMessageProxy",
          "type": "address"
        },
        {
          "internalType": "contract ITokenManagerLinker",
          "name": "newIMALinker",
          "type": "address"
        },
        {
          "internalType": "contract ICommunityLocker",
          "name": "newCommunityLocker",
          "type": "address"
        },
        {
          "internalType": "address",
          "name": "newDepositBox",
          "type": "address"
        }
      ],
      "name": "initializeTokenManager",
      "outputs": [],
      "stateMutability": "nonpayable",
      "type": "function"
    },
    {
      "inputs": [],
      "name": "messageProxy",
      "outputs": [
        {
          "internalType": "contract IMessageProxyForSchain",
          "name": "",
          "type": "address"
        }
      ],
      "stateMutability": "view",
      "type": "function"
    },
    {
      "inputs": [
        {
          "internalType": "bytes32",
          "name": "fromChainHash",
          "type": "bytes32"
        },
        {
          "internalType": "address",
          "name": "sender",
          "type": "address"
        },
        {
          "internalType": "bytes",
          "name": "data",
          "type": "bytes"
        }
      ],
      "name": "postMessage",
      "outputs": [
        {
          "internalType": "address",
          "name": "",
          "type": "address"
        }
      ],
      "stateMutability": "nonpayable",
      "type": "function"
    },
    {
      "inputs": [
        {
          "internalType": "string",
          "name": "schainName",
          "type": "string"
        }
      ],
      "name": "removeTokenManager",
      "outputs": [],
      "stateMutability": "nonpayable",
      "type": "function"
    },
    {
      "inputs": [
        {
          "internalType": "bytes32",
          "name": "role",
          "type": "bytes32"
        },
        {
          "internalType": "address",
          "name": "account",
          "type": "address"
        }
      ],
      "name": "renounceRole",
      "outputs": [],
      "stateMutability": "nonpayable",
      "type": "function"
    },
    {
      "inputs": [
        {
          "internalType": "bytes32",
          "name": "role",
          "type": "bytes32"
        },
        {
          "internalType": "address",
          "name": "account",
          "type": "address"
        }
      ],
      "name": "revokeRole",
      "outputs": [],
      "stateMutability": "nonpayable",
      "type": "function"
    },
    {
      "inputs": [],
      "name": "schainHash",
      "outputs": [
        {
          "internalType": "bytes32",
          "name": "",
          "type": "bytes32"
        }
      ],
      "stateMutability": "view",
      "type": "function"
    },
    {
      "inputs": [
        {
          "internalType": "contract IEthErc20",
          "name": "newEthErc20Address",
          "type": "address"
        }
      ],
      "name": "setEthErc20Address",
      "outputs": [],
      "stateMutability": "nonpayable",
      "type": "function"
    },
    {
      "inputs": [
        {
          "internalType": "bytes4",
          "name": "interfaceId",
          "type": "bytes4"
        }
      ],
      "name": "supportsInterface",
      "outputs": [
        {
          "internalType": "bool",
          "name": "",
          "type": "bool"
        }
      ],
      "stateMutability": "view",
      "type": "function"
    },
    {
      "inputs": [],
      "name": "tokenManagerLinker",
      "outputs": [
        {
          "internalType": "contract ITokenManagerLinker",
          "name": "",
          "type": "address"
        }
      ],
      "stateMutability": "view",
      "type": "function"
    },
    {
      "inputs": [
        {
          "internalType": "bytes32",
          "name": "",
          "type": "bytes32"
        }
      ],
      "name": "tokenManagers",
      "outputs": [
        {
          "internalType": "address",
          "name": "",
          "type": "address"
        }
      ],
      "stateMutability": "view",
      "type": "function"
    }
  ],
  "bytecode": "0x608060405234801561001057600080fd5b506120e8806100206000396000f3fe608060405234801561001057600080fd5b50600436106101f05760003560e01c80638182e7071161010f578063c0e312dc116100a2578063d547741f11610071578063d547741f1461046c578063dec2deb61461047f578063edcc12b514610493578063eeeb9601146104a657600080fd5b8063c0e312dc1461040c578063ca15c8731461041f578063cb703bff14610432578063cc5b715b1461044557600080fd5b806391d14854116100de57806391d14854146103d657806392d7846a146103e9578063a217fddf146103fc578063b9581c501461040457600080fd5b80638182e7071461038a578063884cee5a1461039d5780638b71b4b5146103b05780639010d07c146103c357600080fd5b806339927cf9116101875780635573b8b6116101565780635573b8b61461033e5780636ce681d2146103515780636d611286146103645780636d6c68e61461037757600080fd5b806339927cf9146102da5780633b690b6b146102ed5780633fa194ce146102f657806350f442801461030b57600080fd5b806328c5e182116101c357806328c5e182146102995780632dc151de146102a15780632f2ff15d146102b457806336568abe146102c757600080fd5b806301ffc9a7146101f5578063029996b81461021d5780630f1a8f7414610227578063248a9ca314610268575b600080fd5b610208610203366004611a6e565b6104b9565b60405190151581526020015b60405180910390f35b6102256104e4565b005b6102506102353660046119a7565b60ce602052600090815260409020546001600160a01b031681565b6040516001600160a01b039091168152602001610214565b61028b6102763660046119a7565b60009081526065602052604090206001015490565b604051908152602001610214565b61028b610536565b60ca54610250906001600160a01b031681565b6102256102c23660046119c0565b61057f565b6102256102d53660046119c0565b6105a6565b6102086102e8366004611ab3565b6105c8565b61028b60cc5481565b61028b60008051602061209383398151915281565b6103316040518060400160405280600781526020016613585a5b9b995d60ca1b81525081565b6040516102149190611e11565b60c954610250906001600160a01b031681565b61022561035f366004611b4c565b610623565b60cd54610250906001600160a01b031681565b60cb54610250906001600160a01b031681565b610225610398366004611bd6565b6107e6565b6102506103ab3660046119f0565b610880565b6102256103be36600461198a565b610a19565b6102506103d1366004611a4c565b610ab6565b6102086103e43660046119c0565b610ad5565b60cf54610250906001600160a01b031681565b61028b600081565b610225610b00565b61022561041a366004611ab3565b610b43565b61028b61042d3660046119a7565b610c30565b610225610440366004611af5565b610c47565b61028b7ffda70c2cc66a36c14884ee85424961f51b1d92b4494751699b6d105b3bcbcba881565b61022561047a3660046119c0565b610d9b565b60cd5461020890600160a01b900460ff1681565b6102256104a136600461198a565b610da5565b6102256104b43660046119a7565b610ebb565b60006001600160e01b03198216635a05180f60e01b14806104de57506104de82610f79565b92915050565b6104fc60008051602061209383398151915233610ad5565b6105215760405162461bcd60e51b815260040161051890611e24565b60405180910390fd5b60cd805460ff60a01b1916600160a01b179055565b6040518060400160405280600781526020016613585a5b9b995d60ca1b8152506040516020016105669190611d4d565b6040516020818303038152906040528051906020012081565b6105898282610fae565b60008281526097602052604090206105a19082610fd4565b505050565b6105b08282610fe9565b60008281526097602052604090206105a19082611067565b6000806001600160a01b031660ce600085856040516020016105eb929190611d3d565b60408051808303601f19018152918152815160209283012083529082019290925201600020546001600160a01b031614159392505050565b600054610100900460ff168061063c575060005460ff16155b6106585760405162461bcd60e51b815260040161051890611e65565b600054610100900460ff1615801561067a576000805461ffff19166101011790555b6001600160a01b0382166106d05760405162461bcd60e51b815260206004820181905260248201527f4465706f736974426f7820616464726573732068617320746f206265207365746044820152606401610518565b6106d861107c565b6106e3600033611107565b6106fb60008051602061209383398151915233611107565b6107257ffda70c2cc66a36c14884ee85424961f51b1d92b4494751699b6d105b3bcbcba833611107565b856040516020016107369190611d4d565b60408051601f19818403018152828252805160209182012060cc5560c980546001600160a01b038a81166001600160a01b03199283161790925560ca80548a841690831617905560cb805489841690831617905560cd8054928816929091168217905560008452908301527fc968af77923193016f61d74ba6827296db5e1f37ec4fab3ad1ef20e193395e59910160405180910390a180156107de576000805461ff00191690555b505050505050565b600054610100900460ff16806107ff575060005460ff16155b61081b5760405162461bcd60e51b815260040161051890611e65565b600054610100900460ff1615801561083d576000805461ffff19166101011790555b61084a8787878787610623565b60cf80546001600160a01b0319166001600160a01b0384161790558015610877576000805461ff00191690555b50505050505050565b60c9546000906001600160a01b031633146108dd5760405162461bcd60e51b815260206004820152601c60248201527f53656e646572206973206e6f742061204d65737361676550726f7879000000006044820152606401610518565b848460cc5482141580156108f657506108f68282611111565b6109425760405162461bcd60e51b815260206004820152601b60248201527f526563656976657220636861696e20697320696e636f727265637400000000006044820152606401610518565b600061094e8686611179565b60208101519091506001600160a01b0381166109a15760405162461bcd60e51b815260206004820152601260248201527124b731b7b93932b1ba103932b1b2b4bb32b960711b6044820152606401610518565b60cf5460408381015190516340c10f1960e01b81526001600160a01b03848116600483015260248201929092529116906340c10f1990604401600060405180830381600087803b1580156109f457600080fd5b505af1158015610a08573d6000803e3d6000fd5b50929b9a5050505050505050505050565b610a24600033610ad5565b610a405760405162461bcd60e51b815260040161051890611eb3565b60cf546001600160a01b0382811691161415610a945760405162461bcd60e51b81526020600482015260136024820152724d757374206265206e6577206164647265737360681b6044820152606401610518565b60cf80546001600160a01b0319166001600160a01b0392909216919091179055565b6000828152609760205260408120610ace9083611212565b9392505050565b60009182526065602090815260408084206001600160a01b0393909316845291905290205460ff1690565b610b1860008051602061209383398151915233610ad5565b610b345760405162461bcd60e51b815260040161051890611e24565b60cd805460ff60a01b19169055565b60ca546001600160a01b0316331480610b625750610b62600033610ad5565b610b7e5760405162461bcd60e51b815260040161051890611eb3565b60008282604051602001610b93929190611d3d565b60408051601f198184030181529181528151602092830120600081815260ce9093529120549091506001600160a01b0316610c105760405162461bcd60e51b815260206004820152601860248201527f546f6b656e204d616e61676572206973206e6f742073657400000000000000006044820152606401610518565b600090815260ce6020526040902080546001600160a01b03191690555050565b60008181526097602052604081206104de9061121e565b60ca546001600160a01b0316331480610c665750610c66600033610ad5565b610c825760405162461bcd60e51b815260040161051890611eb3565b60008383604051602001610c97929190611d3d565b60408051601f198184030181529181528151602092830120600081815260ce9093529120549091506001600160a01b031615610d155760405162461bcd60e51b815260206004820152601c60248201527f546f6b656e204d616e6167657220697320616c726561647920736574000000006044820152606401610518565b6001600160a01b038216610d6b5760405162461bcd60e51b815260206004820152601f60248201527f496e636f727265637420546f6b656e204d616e616765722061646472657373006044820152606401610518565b600090815260ce6020526040902080546001600160a01b0319166001600160a01b03929092169190911790555050565b6105b08282611228565b610db0600033610ad5565b610dfc5760405162461bcd60e51b815260206004820152601e60248201527f44454641554c545f41444d494e5f524f4c4520697320726571756972656400006044820152606401610518565b6001600160a01b038116610e525760405162461bcd60e51b815260206004820181905260248201527f4465706f736974426f7820616464726573732068617320746f206265207365746044820152606401610518565b60cd54604080516001600160a01b03928316815291831660208301527fc968af77923193016f61d74ba6827296db5e1f37ec4fab3ad1ef20e193395e59910160405180910390a160cd80546001600160a01b0319166001600160a01b0392909216919091179055565b60cb546040516311be333d60e11b81523360048201526001600160a01b039091169063237c667a90602401600060405180830381600087803b158015610f0057600080fd5b505af1158015610f14573d6000803e3d6000fd5b50505050610f766040518060400160405280600781526020016613585a5b9b995d60ca1b815250604051602001610f4b9190611d4d565b60408051601f19818403018152919052805160209091012060cd546001600160a01b0316338461124e565b50565b60006001600160e01b03198216637965db0b60e01b14806104de57506301ffc9a760e01b6001600160e01b03198316146104de565b600082815260656020526040902060010154610fca8133611333565b6105a18383611397565b6000610ace836001600160a01b03841661141d565b6001600160a01b03811633146110595760405162461bcd60e51b815260206004820152602f60248201527f416363657373436f6e74726f6c3a2063616e206f6e6c792072656e6f756e636560448201526e103937b632b9903337b91039b2b63360891b6064820152608401610518565b611063828261146c565b5050565b6000610ace836001600160a01b0384166114d3565b600054610100900460ff1680611095575060005460ff16155b6110b15760405162461bcd60e51b815260040161051890611e65565b600054610100900460ff161580156110d3576000805461ffff19166101011790555b6110db6115c6565b6110e36115c6565b6110eb6115c6565b6110f36115c6565b8015610f76576000805461ff001916905550565b6105898282611630565b60006040518060400160405280600781526020016613585a5b9b995d60ca1b8152506040516020016111439190611d4d565b6040516020818303038152906040528051906020012083148015610ace57505060cd546001600160a01b03908116911614919050565b604080516080810182526000606082018181528252602082018190529181019190915260016111a8848461163a565b600c8111156111b9576111b9612025565b146112065760405162461bcd60e51b815260206004820181905260248201527f4d6573736167652074797065206973206e6f7420455448207472616e736665726044820152606401610518565b610ace82840184611c71565b6000610ace8383611682565b60006104de825490565b6000828152606560205260409020600101546112448133611333565b6105a1838361146c565b80156112b95760cf546040516338b5bd8d60e21b8152336004820152602481018390526001600160a01b039091169063e2d6f63490604401600060405180830381600087803b1580156112a057600080fd5b505af11580156112b4573d6000803e3d6000fd5b505050505b60006112c583836116ac565b60c954604051634a24490160e11b81529192506001600160a01b0316906394489202906112fa90889088908690600401611dde565b600060405180830381600087803b15801561131457600080fd5b505af1158015611328573d6000803e3d6000fd5b505050505050505050565b61133d8282610ad5565b61106357611355816001600160a01b03166014611704565b611360836020611704565b604051602001611371929190611d69565b60408051601f198184030181529082905262461bcd60e51b825261051891600401611e11565b6113a18282610ad5565b6110635760008281526065602090815260408083206001600160a01b03851684529091529020805460ff191660011790556113d93390565b6001600160a01b0316816001600160a01b0316837f2f8788117e7eff1d82e926ec794901d17c78024a50270940304540a733656f0d60405160405180910390a45050565b6000818152600183016020526040812054611464575081546001818101845560008481526020808220909301849055845484825282860190935260409020919091556104de565b5060006104de565b6114768282610ad5565b156110635760008281526065602090815260408083206001600160a01b0385168085529252808320805460ff1916905551339285917ff6391f5c32d9c69d2a47ea670b442974b53935d1edc7fd64eb21e047a839171b9190a45050565b600081815260018301602052604081205480156115bc5760006114f7600183611f8f565b855490915060009061150b90600190611f8f565b905081811461157057600086600001828154811061152b5761152b612051565b906000526020600020015490508087600001848154811061154e5761154e612051565b6000918252602080832090910192909255918252600188019052604090208390555b85548690806115815761158161203b565b6001900381819060005260206000200160009055905585600101600086815260200190815260200160002060009055600193505050506104de565b60009150506104de565b600054610100900460ff16806115df575060005460ff16155b6115fb5760405162461bcd60e51b815260040161051890611e65565b600054610100900460ff161580156110f3576000805461ffff19166101011790558015610f76576000805461ff001916905550565b6110638282611397565b600080611649838501856119a7565b9050611656602082611fed565b6116765761166e61166984838188611f2e565b61163a565b9150506104de565b61166e83850185611a98565b600082600001828154811061169957611699612051565b9060005260206000200154905092915050565b60408051608081018252600160608083019182529082526001600160a01b038516602080840191909152828401859052925190926116ec91839101611ee2565b60405160208183030381529060405291505092915050565b60606000611713836002611f70565b61171e906002611f58565b67ffffffffffffffff81111561173657611736612067565b6040519080825280601f01601f191660200182016040528015611760576020820181803683370190505b509050600360fc1b8160008151811061177b5761177b612051565b60200101906001600160f81b031916908160001a905350600f60fb1b816001815181106117aa576117aa612051565b60200101906001600160f81b031916908160001a90535060006117ce846002611f70565b6117d9906001611f58565b90505b6001811115611851576f181899199a1a9b1b9c1cb0b131b232b360811b85600f166010811061180d5761180d612051565b1a60f81b82828151811061182357611823612051565b60200101906001600160f81b031916908160001a90535060049490941c9361184a81611fd6565b90506117dc565b508315610ace5760405162461bcd60e51b815260206004820181905260248201527f537472696e67733a20686578206c656e67746820696e73756666696369656e746044820152606401610518565b60008083601f8401126118b257600080fd5b50813567ffffffffffffffff8111156118ca57600080fd5b6020830191508360208285010111156118e257600080fd5b9250929050565b8035600d81106118f857600080fd5b919050565b600082601f83011261190e57600080fd5b813567ffffffffffffffff8082111561192957611929612067565b604051601f8301601f19908116603f0116810190828211818310171561195157611951612067565b8160405283815286602085880101111561196a57600080fd5b836020870160208301376000602085830101528094505050505092915050565b60006020828403121561199c57600080fd5b8135610ace8161207d565b6000602082840312156119b957600080fd5b5035919050565b600080604083850312156119d357600080fd5b8235915060208301356119e58161207d565b809150509250929050565b60008060008060608587031215611a0657600080fd5b843593506020850135611a188161207d565b9250604085013567ffffffffffffffff811115611a3457600080fd5b611a40878288016118a0565b95989497509550505050565b60008060408385031215611a5f57600080fd5b50508035926020909101359150565b600060208284031215611a8057600080fd5b81356001600160e01b031981168114610ace57600080fd5b600060208284031215611aaa57600080fd5b610ace826118e9565b60008060208385031215611ac657600080fd5b823567ffffffffffffffff811115611add57600080fd5b611ae9858286016118a0565b90969095509350505050565b600080600060408486031215611b0a57600080fd5b833567ffffffffffffffff811115611b2157600080fd5b611b2d868287016118a0565b9094509250506020840135611b418161207d565b809150509250925092565b600080600080600060a08688031215611b6457600080fd5b853567ffffffffffffffff811115611b7b57600080fd5b611b87888289016118fd565b9550506020860135611b988161207d565b93506040860135611ba88161207d565b92506060860135611bb88161207d565b91506080860135611bc88161207d565b809150509295509295909350565b60008060008060008060c08789031215611bef57600080fd5b863567ffffffffffffffff811115611c0657600080fd5b611c1289828a016118fd565b9650506020870135611c238161207d565b94506040870135611c338161207d565b93506060870135611c438161207d565b92506080870135611c538161207d565b915060a0870135611c638161207d565b809150509295509295509295565b60008183036060811215611c8457600080fd5b6040516060810167ffffffffffffffff8282108183111715611ca857611ca8612067565b816040526020841215611cba57600080fd5b6080830193508184108185111715611cd457611cd4612067565b5082604052611ce2856118e9565b8152815260208401359150611cf68261207d565b81602082015260408401356040820152809250505092915050565b60008151808452611d29816020860160208601611fa6565b601f01601f19169290920160200192915050565b8183823760009101908152919050565b60008251611d5f818460208701611fa6565b9190910192915050565b7f416363657373436f6e74726f6c3a206163636f756e7420000000000000000000815260008351611da1816017850160208801611fa6565b7001034b99036b4b9b9b4b733903937b6329607d1b6017918401918201528351611dd2816028840160208801611fa6565b01602801949350505050565b8381526001600160a01b0383166020820152606060408201819052600090611e0890830184611d11565b95945050505050565b602081526000610ace6020830184611d11565b60208082526021908201527f4155544f4d415449435f4445504c4f595f524f4c4520697320726571756972656040820152601960fa1b606082015260800190565b6020808252602e908201527f496e697469616c697a61626c653a20636f6e747261637420697320616c72656160408201526d191e481a5b9a5d1a585b1a5e995960921b606082015260800190565b6020808252601590820152742737ba1030baba3437b934bd32b21031b0b63632b960591b604082015260600190565b8151516060820190600d8110611f0857634e487b7160e01b600052602160045260246000fd5b82526020838101516001600160a01b031690830152604092830151929091019190915290565b60008085851115611f3e57600080fd5b83861115611f4b57600080fd5b5050820193919092039150565b60008219821115611f6b57611f6b61200f565b500190565b6000816000190483118215151615611f8a57611f8a61200f565b500290565b600082821015611fa157611fa161200f565b500390565b60005b83811015611fc1578181015183820152602001611fa9565b83811115611fd0576000848401525b50505050565b600081611fe557611fe561200f565b506000190190565b60008261200a57634e487b7160e01b600052601260045260246000fd5b500690565b634e487b7160e01b600052601160045260246000fd5b634e487b7160e01b600052602160045260246000fd5b634e487b7160e01b600052603160045260246000fd5b634e487b7160e01b600052603260045260246000fd5b634e487b7160e01b600052604160045260246000fd5b6001600160a01b0381168114610f7657600080fdfe7164765a3c8bd2513bdfa0c90f1bee9606e920fbf2c9071f310263fbd818684ba264697066735822122000e4c0ab70d1b6d5e6565a22a2049d361909f1777c2e30f5241b77f96abbe39764736f6c63430008060033",
  "linkReferences": {},
  "deployedLinkReferences": {}
}